:020000040000FA
:100000000C945D000C9485000C9485000C94850084
:100010000C9485000C9485000C9485000C9485004C
:100020000C9485000C9485000C9485000C9485003C
:100030000C9485000C9485000C9485000C9485002C
:100040000C9401020C9485000C9471020C944B02E8
:100050000C9485000C9485000C9485000C9485000C
:100060000C9485000C9485000000000024002700FB
:100070002A0000000000250028002B0004040404CE
:100080000404040402020202020203030303030342
:10009000010204081020408001020408102001021F
:1000A00004081020000000080002010000030407FB
:1000B00000000000000000008C0311241FBECFEFE1
:1000C000D8E0DEBFCDBF11E0A0E0B1E0E2E8F7E0AC
:1000D00002C005900D92A231B107D9F721E0A2E14B
:1000E000B1E001C01D92A83BB207E1F710E0CDE5F9
:1000F000D0E004C02197FE010E94B903CC35D1079E
:10010000C9F70E94A3020C94BF030C940000ECEA10
:10011000F0E02491E8E9F0E09491E4E8F0E0E49183
:10012000EE23C9F0222339F0233001F1A8F4213065
:1001300019F1223029F1F0E0EE0FFF1FEE58FF4FCA
:10014000A591B4912FB7F894EC91811126C09095A8
:100150009E239C932FBF08952730A9F02830C9F023
:10016000243049F7209180002F7D03C0209180002A
:100170002F7720938000DFCF24B52F7724BDDBCFEE
:1001800024B52F7DFBCF2091B0002F772093B000B6
:10019000D2CF2091B0002F7DF9CF9E2BDACF3FB781
:1001A000F8948091B4019091B501A091B601B091FD
:1001B000B70126B5A89B05C02F3F19F00196A11DD8
:1001C000B11D3FBFBA2FA92F982F8827BC01CD01A1
:1001D000620F711D811D911D42E0660F771F881F00
:1001E000991F4A95D1F70895AF92BF92CF92DF92AF
:1001F000EF92FF920F931F93CF93DF936C017B01DC
:100200008B01040F151FEB015E01AE18BF08C0176C
:10021000D10759F06991D601ED91FC910190F081DF
:10022000E02DC6010995892B79F7C501DF91CF91A2
:100230001F910F91FF90EF90DF90CF90BF90AF9004
:100240000895FC01538D448D252F30E0842F90E0DC
:10025000821B930B541710F0CF96089501970895C1
:10026000FC01918D828D981761F0A28DAE0FBF2F8A
:10027000B11D5D968C91928D9F5F9F73928F90E0E0
:1002800008958FEF9FEF0895FC01918D828D98174F
:1002900031F0828DE80FF11D858D90E008958FEF8C
:1002A0009FEF0895FC01918D228D892F90E0805C55
:1002B0009F4F821B91098F739927089582E191E0E6
:1002C0000E94520121E0892B09F420E0822F089539
:1002D00080E090E0892B29F00E945E0181110C944E
:1002E00000000895FC01A48DA80FB92FB11DA35AD9
:1002F000BF4F2C91848D90E001968F739927848F46
:10030000A689B7892C93A089B1898C918370806468
:100310008C93938D848D981306C00288F389E02D09
:1003200080818F7D80830895EF92FF920F931F93BA
:10033000CF93DF93EC0181E0888F9B8D8C8D981398
:100340001AC0E889F989808185FF15C09FB7F894A4
:10035000EE89FF896083E889F989808183708064F0
:1003600080839FBF81E090E0DF91CF911F910F913B
:10037000FF90EF900895F62E0B8D10E00F5F1F4F4A
:100380000F731127E02E8C8D8E110CC00FB607FC59
:10039000FACFE889F989808185FFF5CFCE010E94E7
:1003A0007201F1CFEB8DEC0FFD2FF11DE35AFF4FE2
:1003B000F0829FB7F8940B8FEA89FB898081806275
:1003C000CFCFCF93DF93EC01888D8823B9F0AA8932
:1003D000BB89E889F9898C9185FD03C0808186FD00
:1003E0000DC00FB607FCF7CF8C9185FFF2CF80814F
:1003F00085FFEDCFCE010E947201E9CFDF91CF9151
:1004000008951F920F920FB60F9211242F933F93CE
:100410008F939F93AF93BF938091B0019091B1015F
:10042000A091B201B091B3013091AF0123E0230F4D
:100430002D3758F50196A11DB11D2093AF01809372
:10044000B0019093B101A093B201B093B301809138
:10045000B4019091B501A091B601B091B701019698
:10046000A11DB11D8093B4019093B501A093B60175
:10047000B093B701BF91AF919F918F913F912F9111
:100480000F900FBE0F901F90189526E8230F02962D
:10049000A11DB11DD2CF1F920F920FB60F92112442
:1004A0002F933F934F935F936F937F938F939F937C
:1004B000AF93BF93EF93FF9382E191E00E947201AB
:1004C000FF91EF91BF91AF919F918F917F916F912C
:1004D0005F914F913F912F910F900FBE0F901F9002
:1004E00018951F920F920FB60F9211242F938F938E
:1004F0009F93EF93FF93E0912201F091230180817C
:10050000E0912801F091290182FD1BC0908180912A
:100510002B018F5F8F7320912C01821741F0E091A6
:100520002B01F0E0EE5EFE4F958F80932B01FF9143
:10053000EF919F918F912F910F900FBE0F901F9071
:1005400018958081F4CF789484B5826084BD84B599
:10055000816084BD85B5826085BD85B5816085BDBE
:1005600080916E00816080936E0010928100809176
:1005700081008260809381008091810081608093FE
:100580008100809180008160809380008091B10023
:1005900084608093B1008091B00081608093B0004E
:1005A00080917A00846080937A0080917A008260E2
:1005B00080937A0080917A00816080937A008091A4
:1005C0007A00806880937A001092C100E091220145
:1005D000F091230182E08083E0911E01F0911F01E0
:1005E0001082E0912001F09121018FEC8083109224
:1005F0002A01E0912601F091270186E08083E091B5
:100600002401F0912501808180618083E0912401A3
:10061000F0912501808188608083E0912401F09130
:100620002501808180688083E0912401F09125017B
:1006300080818F7D8083E2E9F0E02491EEE7F0E0B5
:1006400084918823C1F090E0880F991FFC01E8593C
:10065000FF4FC591D491FC01EE58FF4FA591B49185
:100660009FB7F8948881E22FE0958E2388838C9140
:10067000E823EC939FBFE8E9F0E02491E4E8F0E0A0
:100680008491882399F090E0880F991FFC01E85924
:10069000FF4FA591B491FC01EE58FF4F85919491C5
:1006A0008FB7F894EC91E22BEC938FBFC0E0D0E0D1
:1006B00081E00E9487000E94CF004B015C0180E135
:1006C000C82E87E2D82EE12CF12C0E94CF006819A9
:1006D00079098A099B09683E734081059105A8F351
:1006E00021E0C21AD108E108F10888EE880E83E003
:1006F000981EA11CB11CC114D104E104F10429F716
:1007000080E00E948700209799F20E945E01882372
:1007100079F20E940000CCCFE2E1F1E01382128274
:1007200088EE93E0A0E0B0E084839583A683B7834E
:1007300084E091E09183808385EC90E095878487C5
:1007400084EC90E09787868780EC90E0918B808B9B
:1007500081EC90E0938B828B82EC90E0958B848B84
:1007600086EC90E0978B868B118E128E138E148EF2
:100770000895EE0FFF1F0590F491E02D0994F89471
:10078000FFCF000000009401F4002101E1015201BB
:0407900030014401EF
:107E0000112484B714BE81FFF0D085E080938100F7
:107E100082E08093C00088E18093C10086E0809377
:107E2000C20080E18093C4008EE0C9D0259A86E02C
:107E300020E33CEF91E0309385002093840096BBD3
:107E4000B09BFECF1D9AA8958150A9F7CC24DD24C4
:107E500088248394B5E0AB2EA1E19A2EF3E0BF2EE7
:107E6000A2D0813461F49FD0082FAFD0023811F036
:107E7000013811F484E001C083E08DD089C08234E0
:107E800011F484E103C0853419F485E0A6D080C0E4
:107E9000853579F488D0E82EFF2485D0082F10E0AE
:107EA000102F00270E291F29000F111F8ED06801E7
:107EB0006FC0863521F484E090D080E0DECF843638
:107EC00009F040C070D06FD0082F6DD080E0C81688
:107ED00080E7D80618F4F601B7BEE895C0E0D1E017
:107EE00062D089930C17E1F7F0E0CF16F0E7DF06D8
:107EF00018F0F601B7BEE89568D007B600FCFDCFD4
:107F0000A601A0E0B1E02C9130E011968C91119780
:107F100090E0982F8827822B932B1296FA010C0160
:107F200087BEE89511244E5F5F4FF1E0A038BF0790
:107F300051F7F601A7BEE89507B600FCFDCF97BE46
:107F4000E89526C08437B1F42ED02DD0F82E2BD052
:107F50003CD0F601EF2C8F010F5F1F4F84911BD097
:107F6000EA94F801C1F70894C11CD11CFA94CF0C13
:107F7000D11C0EC0853739F428D08EE10CD085E9AC
:107F80000AD08FE07ACF813511F488E018D01DD067
:107F900080E101D065CF982F8091C00085FFFCCF94
:107FA0009093C60008958091C00087FFFCCF809118
:107FB000C00084FD01C0A8958091C6000895E0E648
:107FC000F0E098E1908380830895EDDF803219F02E
:107FD00088E0F5DFFFCF84E1DECF1F93182FE3DFCA
:107FE0001150E9F7F2DF1F91089580E0E8DFEE27F6
:047FF000FF270994CA
:027FFE00040479
:00000001FF
